:100000000C94B8030C94E0030C94E0030C94E0030C
:100010000C94E0030C94E0030C94E0030C94E003D4
:100020000C94E0030C94E0030C94B3070C942208A6
:100030000C94E0030C94E0030C94E0030C94E003B4
:100040000C94E0030C94E0030C94E0030C94E003A4
:100050000C94E0030C94E0030C94E0030C94540A19
:100060000C94E0030C94E0030C94E0030C94E00384
:100070000C94E0030C94E0030C94E0030C94E00374
:100080000C94E0030C94E0030C94E0030C94E00364
:100090000C94E0030C94E0030C94E0030C94E00354
:1000A0000C94E0030C94E0030C94E00300000000C7
:1000B000003E5B4F5B3E3E6B4F6B3E1C3E7C3E1CEE
:1000C000183C7E3C181C577D571C1C5E7F5E1C0034
:1000D000183C1800FFE7C3E7FF0018241800FFE7EB
:1000E000DBE7FF30483A060E2629792926407F05AE
:1000F0000507407F05253F5A3CE73C5A7F3E1C1CC4
:1001000008081C1C3E7F14227F22145F5F005F5F83
:1001100006097F017F006689956A6060606060946F
:10012000A2FFA29408047E040810207E2010080874
:100130002A1C08081C2A08081E101010100C1E0C7F
:100140001E0C30383E3830060E3E0E060000000011
:100150000000005F00000007000700147F147F14F8
:10016000242A7F2A1223130864623649562050003D
:1001700008070300001C2241000041221C002A1C29
:100180007F1C2A08083E0808008070300008080814
:100190000808000060600020100804023E51494534
:1001A0003E00427F400072494949462141494D3352
:1001B0001814127F1027454545393C4A49493141B9
:1001C000211109073649494936464949291E000087
:1001D00014000000403400000008142241141414DC
:1001E0001414004122140802015909063E415D59C8
:1001F0004E7C1211127C7F494949363E41414122D1
:100200007F4141413E7F494949417F090909013EFA
:10021000414151737F0808087F00417F4100204021
:10022000413F017F081422417F404040407F021C33
:10023000027F7F0408107F3E4141413E7F0909094A
:10024000063E4151215E7F09192946264949493216
:1002500003017F01033F4040403F1F2040201F3FDC
:100260004038403F63140814630304780403615961
:10027000494D43007F4141410204081020004141A3
:10028000417F04020102044040404040000307084F
:100290000020545478407F2844443838444444284B
:1002A000384444287F385454541800087E090218F2
:1002B000A4A49C787F0804047800447D400020407A
:1002C000403D007F1028440000417F40007C0478BE
:1002D00004787C080404783844444438FC18242406
:1002E0001818242418FC7C08040408485454542486
:1002F00004043F44243C4040207C1C2040201C3C03
:100300004030403C44281028444C9090907C4464F9
:10031000544C44000836410000007700000041368C
:10032000080002010204023C2623263C1EA1A16112
:10033000123A4040207A3854545559215555794144
:100340002154547841215554784020545579400C1B
:100350001E527212395555555939545454593955FC
:100360005454580000457C410002457D420001453F
:100370007C40F0292429F0F0282528F07C545545AC
:10038000002054547C547C0A097F4932494949323F
:100390003248484832324A4848303A4141217A3A54
:1003A00042402078009DA0A07D39444444393D401E
:1003B00040403D3C24FF2424487E4943662B2FFCCB
:1003C0002F2BFF0929F620C0887E09032054547979
:1003D000410000447D413048484A32384040227A4A
:1003E000007A0A0A727D0D19317D2629292F2826C7
:1003F0002929292630484D402038080808080808CF
:100400000808382F10C8ACBA2F102834FA00007B27
:10041000000008142A142222142A1408950022002D
:1004200095AA005500AAAA55AA55AA000000FF00E7
:10043000101010FF00141414FF001010FF00FF1024
:1004400010F010F0141414FC001414F700FF000056
:10045000FF00FF1414F404FC141417101F10101FD5
:10046000101F1414141F00101010F0000000001FC3
:10047000101010101F10101010F010000000FF10CE
:100480001010101010101010FF10000000FF1400CA
:1004900000FF00FF00001F10170000FC04F41414FC
:1004A0001710171414F404F40000FF00F7141414C8
:1004B00014141414F700F7141414171410101F1048
:1004C0001F141414F4141010F010F000001F101F6B
:1004D0000000001F14000000FC140000F010F010D9
:1004E00010FF10FF141414FF141010101F00000050
:1004F00000F010FFFFFFFFFFF0F0F0F0F0FFFFFF54
:100500000000000000FFFF0F0F0F0F0F38444438AA
:10051000447C2A2A3E147E02020606027E027E02E5
:1005200063554941633844443C04407E201E200604
:10053000027E020299A5E7A5991C2A492A1C4C7241
:1005400001724C304A4D4D303048784830BC625AC8
:10055000463D3E494949007E0101017E2A2A2A2A58
:100560002A44445F444440514A444040444A514034
:100570000000FF0103E080FF000008086B6B0836F5
:1005800012362436060F090F060000181800000066
:100590001010003040FF0101001F01011E00191D55
:1005A0001712003C3C3C3C0000000000407078BE4C
:1005B0003F7EF8F0762FBC7860400000000078A8FD
:1005C000A8A8A8A800000000000088C87878C888FB
:1005D00000000000000078C088404090C078000013
:1005E000000000C02022090A08F0000000000000FE
:1005F00088C87878C88800000000000000F040F04B
:100600004040F80000020C1E7FF46E0E1E7EFC7F40
:100610001E0C020000000E000E001F000E00000065
:1006200000000F1930202030190F00000000003C9E
:100630006048202044603C00000000000F10104083
:1006400043433C00000000000F1930202030190FF8
:100650000000000000000B081310303F0000D5F030
:100660008D14A1C881CFD9F1AF2000444953504C1B
:10067000415920414E44204D4F564520464F4E543F
:100680000A0A20202020447061643A206D6F76654C
:1006900020310A41202B20447061643A2072657039
:1006A000656174206D6F76650A202020202020204F
:1006B000423A20746F67676C65207261770A202068
:1006C0002041202B20423A20746F67676C652077A9
:1006D0007261700A0A202050726573732041207481
:1006E0006F207374617274004E6F00596573004E11
:1006F0006F0059657300523A00573A00593A005852
:100700003A00080B00020202000009040000010286
:100710000200000524001001052401010104240247
:1007200006052406000107058103100040090401A5
:1007300000020A00000007050202400000070583CE
:10074000024000000403090412010002EF0201400C
:100750004123368000010102030141726475696E14
:100760006F204C4C430041726475626F7900D10A6E
:1007700011241FBECFEFDAE0DEBFCDBF11E0A0E055
:10078000B1E0E0E4FCE102C005900D92A433B107B2
:10079000D9F725E0A4E3B1E001C01D92A93BB2075F
:1007A000E1F713E0C8EBD3E004C02197FE010E94FB
:1007B000180EC73BD107C9F70E94EE0A0C941E0E13
:1007C0000C940000E5E6F1E0A0E0B8E000800EBC8B
:1007D0008111012C1197A0FDFDCF0192B9F70DB445
:1007E0000895FC0180916401882311F13FB7F894CA
:1007F00082E08093E9002091F200822F90E01816A9
:10080000190614F481E090E0882339F0289844E632
:10081000409363014091F1004083222339F02091FD
:10082000F200211103C02BE62093E8003FBF08959A
:100830008FEF9FEF08952FB7F89483E08093E9003E
:100840009091E800892F807295FF04C09091F2008A
:1008500080E4891B2FBF089580915B0181110DC039
:1008600082E08093570184E08093580110925A01EE
:100870001092590181E080935B0187E591E0089532
:10088000CF93DF931F92CDB7DEB76983DC01ED9183
:10089000FC910280F381E02D41E050E0BE016F5FEA
:1008A0007F4F09950F90DF91CF91089583E080935A
:1008B000E9008091F200882319F08AE38093E80030
:1008C00008950E941B0490E00895CF93DF931F9238
:1008D000CDB7DEB7FC018485958597FD08C02FEF65
:1008E0003FEF358724870F90DF91CF910895CE0198
:1008F00001960E94F103019719F4898190E0F3CFEA
:100900008FEF9FEFF0CF0F931F93CF93DF931F9243
:10091000CDB7DEB78C01FC018485958597FF0BC0B0
:10092000CE0101960E94F103019771F4898190E054
:10093000F80195878487F801848595850F90DF916C
:10094000CF911F910F9108958FEF9FEFF1CFFC0191
:100950008485958597FD0BC09FB7F89482E08093BE
:10096000E9008091F2009FBF90E0019608959FB743
:10097000F89482E08093E9008091F2009FBF90E0BC
:100980000895409151015091520120914F013091B1
:10099000500142175307B4F49091E8009570E1F3C9
:1009A0009091E80092FD19C08093F100809151016F
:1009B0009091520101968F739927892B19F48EEF2C
:1009C0008093E8008091510190915201019690939B
:1009D00052018093510181E0089580E00895DF92F3
:1009E000EF92FF920F931F93CF93DF93D82E8A013C
:1009F000EB017B01E40EF51ECE15DF0559F0D7FEA5
:100A000012C0FE0184910E94C10421968111F4CF8D
:100A10000FEF1FEFC801DF91CF911F910F91FF9052
:100A2000EF90DF9008958881EECF0F931F93CF93BF
:100A3000DF931F92CDB7DEB782E0898342E450E0B6
:100A400062E077E080E80E94EF040E942C04DC0161
:100A500012960D911C910115110589F0D801ED91A7
:100A6000FC910280F381E02DBE016F5F7F4FC801D2
:100A7000099597FD04C0F80100851185ECCF8981A7
:100A80000F90DF91CF911F910F910895615030F039
:100A90002091F100FC0120830196F8CF289884E68C
:100AA000809363010895FC010E94EA05319728F0C4
:100AB00068517C4F8F4F9F4FF9CFAB01FC010E94D3
:100AC000EA05641775078E079F07C8F308958F928C
:100AD0009F92AF92BF92CF92DF92EF92FF920F93CD
:100AE0001F93CF93DF936C017B018A0180910D01ED
:100AF000882309F45AC080916401882309F455C001
:100B00008091560180FF05C08091E0008260809353
:100B1000E000E801B12C8AEFA82E93E0892E2AE3A9
:100B2000922E209711F4BB20C9F10E941B04811161
:100B300008C0AA94AA20C9F181E090E00E94530560
:100B4000F0CF8C171D0611F00CF08C2F9FB7F89486
:100B50008092E9002091E80025FD02C09FBFE1CF0F
:100B6000282F30E0C21BD30BF701815020F04191B8
:100B70004093F100FACFE20EF31EBB2021F09092D9
:100B8000E800B12CEBCF8091E80085FDE7CF909293
:100B9000E800BB24B394209709F3F3CF5D9884E673
:100BA00080935501101611063CF081E090E0F601AB
:100BB0009383828310E000E0C801DF91CF911F9101
:100BC0000F91FF90EF90DF90CF90BF90AF909F90EC
:100BD0008F900895ABE4B1E02FB7F8947D918D919B
:100BE0009C9166B52FBFA89B05C06F3F18F47F5F2F
:100BF0008F4F9F4F22E0660F771F881F991F2A95FE
:100C0000D1F70895AF92BF92CF92DF92EF92FF9209
:100C10000F931F93CF93DF936C017B018B01040F24
:100C2000151FEB015E01AE18BF08C017D10759F0C0
:100C30006991D601ED91FC910190F081E02DC60102
:100C40000995892B79F7C501DF91CF911F910F91FC
:100C5000FF90EF90DF90CF90BF90AF90089590E01D
:100C60000C9453058FB18095807F669B88601C9B98
:100C70008460089581E083BF889513BE089590E154
:100C8000282F81E061FD84E060FD880F62FD829580
:100C9000687F969FD0011124A20FAB59BE4F0C90D4
:100CA000082A40FF08260C92089590E0E5E6F1E05E
:100CB00091119FEF8FEF9193919391939193815025
:100CC000D0F710923A011092390110923C01109223
:100CD0003B0108955F926F927F928F929F92AF92A5
:100CE000BF92CF92DF92EF92FF920F931F93CF9319
:100CF000DF936D30B1F480913D01811118C081E026
:100D000090E0DF91CF911F910F91FF90EF90DF90D6
:100D1000CF90BF90AF909F908F907F906F905F909B
:100D200008956A3021F480913D01882359F0809123
:100D30003E018823A1F080913B0190913C018C37CA
:100D400091056CF010923C0110923B0180913901A9
:100D500090913A01089690933A01809339016A3054
:100D600021F480913D01882351F2809038017090E8
:100D700001016090390150903A01E0903B01F09000
:100D80003C0185E0689FE0011124C455DF4F570105
:100D9000D12CE5E0C12CDE1629F0CE010196FE0132
:100DA000C490EC01062D152D88E0982EC0FC18C0CB
:100DB000482D871016C0C6949A940F5F1F4F91104C
:100DC000F5CFD3948FEFA81AB80AE6E0DE12E1CF90
:100DD000F6E0EF0EF11CF0923C01E0923B018FCF68
:100DE000472DF0E8AF16B10430F70034110518F7BD
:100DF000B801C5010E943F06DECF0F931F93CF932A
:100E0000DF938C01D0E0C0E0F801EC0FFD1F64918E
:100E1000662341F085EB95E00E946A06892B11F06C
:100E20002196F2CFCE01DF91CF911F910F910895BE
:100E300090913F01982329F490914001982381E0FB
:100E400009F480E00895CF93C82F0E943206982FAE
:100E50009C2381E09C1380E0CF91089580E00C9466
:100E6000E203089590E080E008958F929F92AF9200
:100E7000BF920F931F93CF93DF93CDB7DEB7A197A8
:100E80000FB6F894DEBF0FBECDBF19A2423008F4F2
:100E90004AE08E010F5D1F4F842E912CB12CA12CA6
:100EA000A50194010E94F60DE62FB901CA01EA30AE
:100EB00044F5E05DD801EE938D01232B242B252BE7
:100EC00079F790E080E0109769F0FD010190002033
:100ED000E9F73197AF014A1B5B0BBD0185EB95E04C
:100EE0000E940206A1960FB6F894DEBF0FBECDBFDA
:100EF000DF91CF911F910F91BF90AF909F908F90F6
:100F00000895E95CD7CFCF92DF92EF92FF92CF9313
:100F1000DF936C01990FEE08FF08F7FE19C06DE230
:100F200085EB95E00E946A06EC0166277727CB01E6
:100F30006C197D098E099F094AE00E9435078C0FC4
:100F40009D1FDF91CF91FF90EF90DF90CF9008959C
:100F50004AE0C701B601DF91CF91FF90EF90DF909B
:100F6000CF900C9435071F920F920FB60F92112459
:100F70008F939F938091E1009091E100937F9093F4
:100F8000E10083FF0FC01092E90091E09093EB0025
:100F90001092EC0092E39093ED001092640198E0BF
:100FA0009093F00082FF22C093E09093E90090912B
:100FB000F200992319F09AE39093E800909155017B
:100FC000992341F0909155019150909355019111C1
:100FD00001C05D9A90916301992341F09091630162
:100FE000915090936301911101C0289A84FF18C019
:100FF0008091E2008E7E81608093E2008091E1002A
:101000008F7E8093E100809156018E7E8061809377
:1010100056019F918F910F900FBE0F901F901895C2
:1010200080FFF7CF8091E2008E7E80618093E200A6
:101030008091E1008E7E8093E100809156018E7E4A
:101040008160E5CF1F920F920FB60F921124CF92BD
:10105000DF92EF92FF920F931F932F933F934F9343
:101060005F936F937F938F939F93AF93BF93EF9310
:10107000FF93CF93DF93CDB7DEB76C97DEBFCDBFC5
:101080001092E9008091E80083FF25C068E0CE015E
:1010900045960E94460582EF8093E8008D8987FF80
:1010A00039C09091E80090FFFCCF982F907609F01E
:1010B00034C19E894F89588D2F89F88C911131C088
:1010C000803861F5809154018093F1001092F10015
:1010D0008EEF8093E8006C960FB6F894DEBF0FBEDB
:1010E000CDBFDF91CF91FF91EF91BF91AF919F91D4
:1010F0008F917F916F915F914F913F912F911F91B0
:101100000F91FF90EF90DF90CF900F900FBE0F9058
:101110001F9018959EEF9093E800C7CF1092F100B2
:10112000D5CF913059F48111D3CF4130510581F69B
:10113000809154018D7F80935401CACF933049F43C
:101140008111C6CF4130510519F68091540182605A
:10115000F2CF953041F48091E80080FFFCCF206809
:101160002093E300B5CF963009F0A9C00B8D1C8DFC
:1011700022E01092E9001092520110925101F212F5
:101180002EC01092500110924F010E9415051F822F
:1011900099E09983FA8291E09E8390EA98879AEF8A
:1011A00099872091510130915201275F3F4F3C8335
:1011B0002B838D831092E9001092520110925101FD
:1011C0001093500100934F0149E050E0BE016F5F62
:1011D0007F4F80E00E94EF040E94150579CF1093A5
:1011E000500100934F010E942C04DC0112960D91D6
:1011F0001C910115110509F451C1D801ED91FC9123
:101200000480F581E02DBE016B5E7F4FC80109951A
:10121000009709F03EC1F80100851185EACFF3E09F
:10122000FF120EC08F89882309F440C0823061F418
:1012300040E867E086E697E00E949E0A811148CF69
:1012400081E28093EB0047CF813029F440E86BE0E6
:101250008AE597E0F1CF833099F70E942C04DC01F6
:101260001296ED90FC908E010F5F1F4F6801E11404
:10127000F10479F0D701ED91FC910680F781E02D22
:10128000B801C7010995080F111DF701E084F18429
:10129000EECFD8011C92F60101900020E9F73197BA
:1012A000BF016C197D0940E0C601C6CF64E477E058
:1012B000FB01449150E080E80E94EF0409CF973091
:1012C00009F4BECF983021F481E08093F10000CF83
:1012D000993009F0FDCE837009F0B2CFEFE0F1E074
:1012E00081E031E096E32191222371F08093E900BF
:1012F0003093EB00DF0111972C912093EC00909339
:10130000ED008F5F873079F78EE78093EA001092C7
:10131000EA008F8980936401DBCE8B8D9C8D1092C7
:10132000E900109252011092510190935001809364
:101330004F01898D811192C08E899D89913A49F41E
:10134000813209F07DCF47E050E066E071E080E057
:10135000B3CF913209F074CF833269F48F89988DBD
:10136000B0E0A0E08093020190930301A0930401F8
:10137000B0930501ADCE803269F48091E80082FF20
:10138000FCCF67E086E091E00E9446058BEF8093FA
:10139000E8009ECE823209F09BCE8F8980930D01AA
:1013A000EEEFFFE7859194918B3F9C4D51F1E0E08A
:1013B000F8E08091060190910701A0910801B09199
:1013C0000901803B9440A105B105F1F480910D0124
:1013D00080FD1AC0EE3F8AE0F80789F587E797E7B6
:1013E00091838083809160008093530188E19BE02A
:1013F0000FB6F894A895809360000FBE909360009C
:1014000067CEEEEFFAE0D5CF80819181873797479D
:1014100009F05ECEA895809160008861809360009D
:101420008091530180936000EE3F2AE0F20789F03B
:101430008091FE0A9091FF0A9183808349CE80813A
:1014400091818737980751F29093FF0A8093FE0AA3
:10145000C5CF1092FF0A1092FE0A3ACE0E942C04C9
:10146000DC0112960D911C910115110509F4E8CECD
:10147000D801ED91FC910190F081E02DBE016B5EF1
:101480007F4FC8010995811123CEF8010085118590
:10149000EBCF181619060CF41BCED2CEF1E0FF12DA
:1014A000BECE68E477E004CF0F920FB68F939F9380
:1014B000EF93FF93809146018D5F8D3708F08D5734
:1014C00080934601E7E4F1E080818E4F8083918133
:1014D0009F4F918382818F4F828383818F4F83833C
:1014E000EBE4F1E080818F5F808381818F4F818386
:1014F00082818F4F828383818F4F83838FB18F60EF
:1015000066991C9B88278F3681F480914501981B32
:10151000963068F0E0E0F8E087E78083818388E137
:1015200080936000F0936000FFCF90934501FF919E
:10153000EF919F918F910FBE0F901895EF92FF92B0
:101540000F931F93CF93DF93F82E192FE62E042FBE
:1015500081E0860F880F0E94C10483E00E94C104CD
:10156000CF2DD12FEC0EFD2EF11CCE15DF05B9F0DD
:1015700007FF13C0FE0184910E94C104182F80E070
:101580000E94C104812321968111EFCFDF91CF9179
:101590001F910F91FF90EF9008958881EDCF81E02A
:1015A000F5CFE5E6F5E01382128288EE93E0A0E045
:1015B000B0E084839583A683B78389E191E091832A
:1015C00080838FEF9FEF95878487E5EBF5E01382AB
:1015D00012828BE291E0918380830895789483E076
:1015E00084BD83E085BD81E080936E00E1E8F0E09A
:1015F00083E08083E0E881E08083E1E983E0808329
:10160000E0E981E08083E1EC87E08083E3EC81E046
:101610008083E0EC82E08083E2EC81E08083EAE793
:1016200087E0808380688083109264011092540167
:10163000109256018091D70081608093D70080EA94
:101640008093D80089B5806189BD89B5826089BDE4
:1016500009B400FEFDCF81E090E00E945305809127
:10166000D8008F7C80618093D8008091E000807FDB
:101670008093E0008091E1008E7E8093E1008DE018
:101680008093E200559A209A81EC80937C0081EF50
:1016900085B987EE84B982E38BB982EF8AB9769AED
:1016A0006E9880EF81BB10BA80E58CBD81E08DBD66
:1016B00085E00E942F065F9A85E00E942F065C98C5
:1016C000EEE5F6E085918EBD00000DB407FEFDCF7E
:1016D000EB36C1F75C9A81E88093640081E08093E7
:1016E00065000E942E0780E80E942307882399F056
:1016F0005C9885EA8EBD00000DB407FEFDCF5C9AB4
:101700002E982F982D9880916400806280936400B9
:101710000E943A06FDCF84E00E9423078823B9F196
:101720002D9884E80E9423078823A1F02D9A88EC45
:101730000E942F062F986FEF82E090E00E94E40D48
:1017400084EF91E00E9453052F9A84E80E942307BA
:101750008111FBCF84E10E9423078823A1F02D9AF9
:1017600088EC0E942F062E9860E082E090E00E94B4
:10177000E40D84EF91E00E9453052E9A84E10E94CB
:1017800023078111FBCF88EC0E942F06C4CF2D9A2E
:1017900082E090E00E94DC0D882309F44DC03E9A5F
:1017A0003F9A81E090E00E94DC0D282F2470F22EF9
:1017B00081FF0BC021112E98C1EFDFEF80E40E9462
:1017C00023078823E1F12E9A2F9A82E30E942F06A5
:1017D0000E9432068111F9CF82E3809300010E94BA
:1017E00055068BE696E00E94FD060E942E0788E0D3
:1017F0000E942307882309F4B9C098E1292E312CCF
:1018000020E2622E712C30E3C32ED12C48E2A42EAC
:10181000B12C5524539480E0882E80E0982E80913E
:101820003601882309F4A5C0109236018114910471
:10183000B1F30E940000EDCF3E983F98B2CFFF2059
:1018400029F0C430D10511F42E9A2F9881E00E941E
:10185000E2034C2F4770B42E9E0153E03595279537
:101860005A95E1F7C9019695982F882797958795FE
:101870008B599E4F70E060E02E3FEFEF3E0751F135
:10188000DC01AC56BF4F8C0150E040E0FB01E45559
:10189000FA4F6F01F601E40FF51FE491F0E04F01FC
:1018A0000B2C02C0880C991C0A94E2F72F3F3207D8
:1018B00021F0F801E488E828E48ABB2019F0EC91D3
:1018C000E929EC934F5F5F4F11960F5F1F4F48352B
:1018D000510501F72F5F3F4F80589F4F685A7F4F48
:1018E000603B710549F60E942E078FE00E942F068B
:1018F0002196C931D10509F061CFFF2011F02F9A4F
:101900002D9880E991E00E9453052D9A81E090E0A6
:101910000E94DC0D80FF59CF8AE090E00E94DC0D30
:101920009FEF980F9E3F08F050CF22E330E03093B6
:101930003C0120933B0128E330E030933A012093AF
:101940003901CAE0D0E0682F85EB95E00E946A0675
:101950002196CE010E94DC0DC031D105A1F70E9475
:101960002E0788EE93E00E9453052FCF0E943A067F
:101970003ECF9091470180913701F92FF81B8F2FAF
:1019800020910001F21738F48F5F821708F04ECFD4
:101990000E943A064BCF5092360190933701E4E310
:1019A000F1E0808191810196808391838091400153
:1019B00080933F010E9432068093400184E00E94A0
:1019C0001807882359F088E00E942307882309F428
:1019D000CFC080913E01852580933E0180E80E9422
:1019E0001807882309F4CAC08091430190914401EB
:1019F0000197909344018093430180E10E9418076E
:101A0000882309F4C1C0809143019091440101965B
:101A1000909344018093430180E20E941807882339
:101A200009F4B8C0809141019091420101979093CF
:101A300042018093410180E40E941807882309F441
:101A4000AFC0809141019091420101969093420173
:101A5000809341010E945506D0E0C0E010E08091E3
:101A60004301909144018C0F9D1FE0904101F09043
:101A70004201F0923C01E0923B0190933A01809345
:101A8000390100E1010F612F85EB95E00E946A06A4
:101A90001F5F1013F8CF2896C038D10501F70FE269
:101AA00010E0CFE0D0E041E0BE01C8010E943F0657
:101AB0002196C033D105B9F70F5F1F4F0E341105C2
:101AC00081F71092010150923801D0933C01C093EC
:101AD0003B0180E190E090933A01809339018FEFD0
:101AE00096E00E94FD06C7010E948307D0933C0147
:101AF000C0933B0130923A01209239018CEF96E07D
:101B00000E94FD0680914301909144010E94830749
:101B1000D0933C01C0933B0170923A01609239012D
:101B200089EF96E00E94FD0680913E01882309F42A
:101B30003DC082EF96E00E94FD06D0923C01C0922B
:101B40003B01B0923A01A092390186EF96E00E94E3
:101B5000FD0680913D01882361F18BEE96E00E94A5
:101B6000FD0650920101109238010E942E075ECEB0
:101B700080913D01852580933D0130CF88E80E940A
:101B80002307811131CF39CF88E10E9423078111CA
:101B90003ACF42CF88E20E942307811143CF4BCF37
:101BA00088E40E94230781114CCF54CF8FEE96E03A
:101BB000C2CF88EE96E0D3CFF999FECF92BD81BD1A
:101BC000F89A992780B50895262FF999FECF92BDEE
:101BD00081BDF89A019700B4021639F01FBA20BDF2
:101BE0000FB6F894FA9AF99A0FBE0895A1E21A2E48
:101BF000AA1BBB1BFD010DC0AA1FBB1FEE1FFF1FB1
:101C0000A217B307E407F50720F0A21BB30BE40B00
:101C1000F50B661F771F881F991F1A9469F7609547
:101C20007095809590959B01AC01BD01CF01089501
:101C3000EE0FFF1F0590F491E02D0994F894FFCF6B
:101C40001001FFFFFFFF00E100000000000000C1E5
:101C50008081000000000000004004670561045618
:101C600004A70465048304000000006A060206322B
:041C70000731070031
:00000001FF
