:100000000C946D030C9495030C9495030C94950338
:100010000C9495030C9495030C9495030C94950300
:100020000C9495030C9495030C9482060C94F106A1
:100030000C9495030C9495030C9495030C949503E0
:100040000C9495030C9495030C9495030C949503D0
:100050000C9495030C9495030C9495030C9423092C
:100060000C9495030C9495030C9495030C949503B0
:100070000C9495030C9495030C9495030C949503A0
:100080000C9495030C9495030C9495030C94950390
:100090000C9495030C9495030C9495030C94950380
:1000A0000C9495030C9495030C94950300000000A8
:1000B000003E5B4F5B3E3E6B4F6B3E1C3E7C3E1CEE
:1000C000183C7E3C181C577D571C1C5E7F5E1C0034
:1000D000183C1800FFE7C3E7FF0018241800FFE7EB
:1000E000DBE7FF30483A060E2629792926407F05AE
:1000F0000507407F05253F5A3CE73C5A7F3E1C1CC4
:1001000008081C1C3E7F14227F22145F5F005F5F83
:1001100006097F017F006689956A6060606060946F
:10012000A2FFA29408047E040810207E2010080874
:100130002A1C08081C2A08081E101010100C1E0C7F
:100140001E0C30383E3830060E3E0E060000000011
:100150000000005F00000007000700147F147F14F8
:10016000242A7F2A1223130864623649562050003D
:1001700008070300001C2241000041221C002A1C29
:100180007F1C2A08083E0808008070300008080814
:100190000808000060600020100804023E51494534
:1001A0003E00427F400072494949462141494D3352
:1001B0001814127F1027454545393C4A49493141B9
:1001C000211109073649494936464949291E000087
:1001D00014000000403400000008142241141414DC
:1001E0001414004122140802015909063E415D59C8
:1001F0004E7C1211127C7F494949363E41414122D1
:100200007F4141413E7F494949417F090909013EFA
:10021000414151737F0808087F00417F4100204021
:10022000413F017F081422417F404040407F021C33
:10023000027F7F0408107F3E4141413E7F0909094A
:10024000063E4151215E7F09192946264949493216
:1002500003017F01033F4040403F1F2040201F3FDC
:100260004038403F63140814630304780403615961
:10027000494D43007F4141410204081020004141A3
:10028000417F04020102044040404040000307084F
:100290000020545478407F2844443838444444284B
:1002A000384444287F385454541800087E090218F2
:1002B000A4A49C787F0804047800447D400020407A
:1002C000403D007F1028440000417F40007C0478BE
:1002D00004787C080404783844444438FC18242406
:1002E0001818242418FC7C08040408485454542486
:1002F00004043F44243C4040207C1C2040201C3C03
:100300004030403C44281028444C9090907C4464F9
:10031000544C44000836410000007700000041368C
:10032000080002010204023C2623263C1EA1A16112
:10033000123A4040207A3854545559215555794144
:100340002154547841215554784020545579400C1B
:100350001E527212395555555939545454593955FC
:100360005454580000457C410002457D420001453F
:100370007C40F0292429F0F0282528F07C545545AC
:10038000002054547C547C0A097F4932494949323F
:100390003248484832324A4848303A4141217A3A54
:1003A00042402078009DA0A07D39444444393D401E
:1003B00040403D3C24FF2424487E4943662B2FFCCB
:1003C0002F2BFF0929F620C0887E09032054547979
:1003D000410000447D413048484A32384040227A4A
:1003E000007A0A0A727D0D19317D2629292F2826C7
:1003F0002929292630484D402038080808080808CF
:100400000808382F10C8ACBA2F102834FA00007B27
:10041000000008142A142222142A1408950022002D
:1004200095AA005500AAAA55AA55AA000000FF00E7
:10043000101010FF00141414FF001010FF00FF1024
:1004400010F010F0141414FC001414F700FF000056
:10045000FF00FF1414F404FC141417101F10101FD5
:10046000101F1414141F00101010F0000000001FC3
:10047000101010101F10101010F010000000FF10CE
:100480001010101010101010FF10000000FF1400CA
:1004900000FF00FF00001F10170000FC04F41414FC
:1004A0001710171414F404F40000FF00F7141414C8
:1004B00014141414F700F7141414171410101F1048
:1004C0001F141414F4141010F010F000001F101F6B
:1004D0000000001F14000000FC140000F010F010D9
:1004E00010FF10FF141414FF141010101F00000050
:1004F00000F010FFFFFFFFFFF0F0F0F0F0FFFFFF54
:100500000000000000FFFF0F0F0F0F0F38444438AA
:10051000447C2A2A3E147E02020606027E027E02E5
:1005200063554941633844443C04407E201E200604
:10053000027E020299A5E7A5991C2A492A1C4C7241
:1005400001724C304A4D4D303048784830BC625AC8
:10055000463D3E494949007E0101017E2A2A2A2A58
:100560002A44445F444440514A444040444A514034
:100570000000FF0103E080FF000008086B6B0836F5
:1005800012362436060F090F060000181800000066
:100590001010003040FF0101001F01011E00191D55
:1005A0001712003C3C3C3C0000000000407078BE4C
:1005B0003F7EF8F0762FBC7860400000000078A8FD
:1005C000A8A8A8A800000000000088C87878C888FB
:1005D00000000000000078C088404090C078000013
:1005E000000000C02022090A08F0000000000000FE
:1005F00088C87878C88800000000000000F040F04B
:100600004040F80000020C1E7FF46E0E1E7EFC7F40
:100610001E0C020000000E000E001F000E00000065
:1006200000000F1930202030190F00000000003C9E
:100630006048202044603C00000000000F10104083
:1006400043433C00000000000F1930202030190FF8
:100650000000000000000B081310303F0000D5F030
:100660008D14A1C881CFD9F1AF2000080B00020280
:10067000020000090400000102020000052400102D
:1006800001052401010104240206052406000107D6
:1006900005810310004009040100020A0000000760
:1006A0000502024000000705830240000004030920
:1006B0000412010002EF02014041233680000101D3
:1006C00002030141726475696E6F204C4C43004116
:1006D000726475626F790000A00911241FBECFEF0C
:1006E000DAE0DEBFCDBF11E0A0E0B1E0EEE4F8E17A
:1006F00002C005900D92A234B107D9F725E0A2E41B
:10070000B1E001C01D92A03CB207E1F713E0CDE6D5
:10071000D3E004C02197FE010E941F0CCC36D10704
:10072000C9F70E94BD090C94250C0C940000ECE65E
:10073000F1E0A0E0B8E000800EBC8111012C11971F
:10074000A0FDFDCF0192B9F70DB40895FC01809191
:100750006B01882311F13FB7F89482E08093E900A0
:100760002091F200822F90E01816190614F481E00F
:1007700090E0882339F0289844E640936A0140913C
:10078000F1004083222339F02091F200211103C0AF
:100790002BE62093E8003FBF08958FEF9FEF089569
:1007A0002FB7F89483E08093E9009091E800892FB7
:1007B000807295FF04C09091F20080E4891B2FBFE6
:1007C00008958091620181110DC082E080935E01E5
:1007D00084E080935F01109261011092600181E0DA
:1007E000809362018EE591E00895CF93DF931F928D
:1007F000CDB7DEB76983DC01ED91FC910280F38116
:10080000E02D41E050E0BE016F5F7F4F09950F90F2
:10081000DF91CF91089583E08093E9008091F20009
:10082000882319F08AE38093E80008950E94D0039A
:1008300090E00895CF93DF931F92CDB7DEB7FC0110
:100840008485958597FD08C02FEF3FEF3587248776
:100850000F90DF91CF910895CE0101960E94A603DB
:10086000019719F4898190E0F3CF8FEF9FEFF0CFDC
:100870000F931F93CF93DF931F92CDB7DEB78C01F9
:10088000FC018485958597FF0BC0CE0101960E94DF
:10089000A603019771F4898190E0F8019587848718
:1008A000F801848595850F90DF91CF911F910F916D
:1008B00008958FEF9FEFF1CFFC018485958597FD1B
:1008C0000BC09FB7F89482E08093E9008091F2001A
:1008D0009FBF90E0019608959FB7F89482E08093BF
:1008E000E9008091F2009FBF90E008954091580187
:1008F00050915901209156013091570142175307E9
:10090000B4F49091E8009570E1F39091E80092FDC5
:1009100019C08093F100809158019091590101967E
:100920008F739927892B19F48EEF8093E8008091BB
:100930005801909159010196909359018093580163
:1009400081E0089580E00895DF92EF92FF920F9387
:100950001F93CF93DF93D82E8A01EB017B01E40E26
:10096000F51ECE15DF0559F0D7FE12C0FE018491A9
:100970000E94760421968111F4CF0FEF1FEFC8017A
:10098000DF91CF911F910F91FF90EF90DF9008952D
:100990008881EECF0F931F93CF93DF931F92CDB734
:1009A000DEB782E0898342E450E06BE676E080E8DF
:1009B0000E94A4040E94E103DC0112960D911C9197
:1009C0000115110589F0D801ED91FC910280F381A8
:1009D000E02DBE016F5F7F4FC801099597FD04C0F0
:1009E000F80100851185ECCF89810F90DF91CF91BF
:1009F0001F910F910895615030F02091F100FC019A
:100A000020830196F8CF289884E680936A010895A0
:100A1000FC010E949F05319728F068517C4F8F4F51
:100A20009F4FF9CFAB01FC010E949F05641775072A
:100A30008E079F07C8F308958F929F92AF92BF923F
:100A4000CF92DF92EF92FF920F931F93CF93DF939A
:100A50006C017B018A0180911B01882309F45AC033
:100A600080916B01882309F455C080915D0180FF5E
:100A700005C08091E00082608093E000E801B12C25
:100A80008AEFA82E93E0892E2AE3922E209711F464
:100A9000BB20C9F10E94D003811108C0AA94AA20EA
:100AA000C9F181E090E00E940805F0CF8C171D0687
:100AB00011F00CF08C2F9FB7F8948092E9002091F0
:100AC000E80025FD02C09FBFE1CF282F30E0C21B08
:100AD000D30BF701815020F041914093F100FACF00
:100AE000E20EF31EBB2021F09092E800B12CEBCF78
:100AF0008091E80085FDE7CF9092E800BB24B39495
:100B0000209709F3F3CF5D9884E680935C0110167B
:100B100011063CF081E090E0F6019383828310E0BF
:100B200000E0C801DF91CF911F910F91FF90EF90EE
:100B3000DF90CF90BF90AF909F908F900895A2E5E7
:100B4000B1E02FB7F8947D918D919C9166B52FBF40
:100B5000A89B05C06F3F18F47F5F8F4F9F4F22E027
:100B6000660F771F881F991F2A95D1F70895AF92B6
:100B7000BF92CF92DF92EF92FF920F931F93CF938A
:100B8000DF936C017B018B01040F151FEB015E01EC
:100B9000AE18BF08C017D10759F06991D601ED9181
:100BA000FC910190F081E02DC6010995892B79F720
:100BB000C501DF91CF911F910F91FF90EF90DF90D2
:100BC000CF90BF90AF90089590E00C9408058FB13E
:100BD0008095807F669B88601C9B846008956F92DF
:100BE0007F928F929F92AF92BF92CF92DF92EF92BD
:100BF000FF920F931F93CF93DF9300D01F92CDB737
:100C0000DEB76D3089F0A0904801B09049016A309C
:100C1000F9F410924701109246019501285F3F4F69
:100C2000309349012093480181E090E00F900F90AC
:100C30000F90DF91CF911F910F91FF90EF90DF9078
:100C4000CF90BF90AF909F908F907F906F900895BE
:100C5000009146011091470135E0639FF001112496
:100C6000E455FF4FA801712C80E1682E98E0D92E41
:100C7000DA0C75E060E0771621F0CF0101966491FF
:100C8000FC01C50140385105D0F480349105B8F419
:100C9000A62FA170CA2E9C0171E021FD74E020FDF9
:100CA000770F22FD7295287F629ED0011124A40F38
:100CB000A459BE4F0C90072AC0FE07260C926695D9
:100CC0000196D812DFCF73944F5F5F4F86E07812A2
:100CD000D0CF0A5F1F4F1093470100934601A4CF66
:100CE000CF93C82F0E94E705982F9C2381E09C1387
:100CF00080E0CF91089580E00C949703089590E0F0
:100D000080E008951F920F920FB60F9211248F93D7
:100D10009F938091E1009091E100937F9093E10097
:100D200083FF0FC01092E90091E09093EB001092C6
:100D3000EC0092E39093ED0010926B0198E0909399
:100D4000F00082FF22C093E09093E9009091F200BE
:100D5000992319F09AE39093E80090915C0199230C
:100D600041F090915C01915090935C01911101C010
:100D70005D9A90916A01992341F090916A01915096
:100D800090936A01911101C0289A84FF18C0809144
:100D9000E2008E7E81608093E2008091E1008F7E90
:100DA0008093E10080915D018E7E806180935D0182
:100DB0009F918F910F900FBE0F901F90189580FFFD
:100DC000F7CF8091E2008E7E80618093E200809177
:100DD000E1008E7E8093E10080915D018E7E8160D6
:100DE000E5CF1F920F920FB60F921124CF92DF9290
:100DF000EF92FF920F931F932F933F934F935F9325
:100E00006F937F938F939F93AF93BF93EF93FF93D2
:100E1000CF93DF93CDB7DEB76C97DEBFCDBF109217
:100E2000E9008091E80083FF25C068E0CE01459687
:100E30000E94FB0482EF8093E8008D8987FF39C010
:100E40009091E80090FFFCCF982F907609F034C184
:100E50009E894F89588D2F89F88C911131C0803827
:100E600061F580915B018093F1001092F1008EEFAB
:100E70008093E8006C960FB6F894DEBF0FBECDBF2E
:100E8000DF91CF91FF91EF91BF91AF919F918F91A2
:100E90007F916F915F914F913F912F911F910F9192
:100EA000FF90EF90DF90CF900F900FBE0F901F90AC
:100EB00018959EEF9093E800C7CF1092F100D5CF20
:100EC000913059F48111D3CF4130510581F6809191
:100ED0005B018D7F80935B01CACF933049F4811110
:100EE000C6CF4130510519F680915B018260F2CF87
:100EF000953041F48091E80080FFFCCF206820937A
:100F0000E300B5CF963009F0A9C00B8D1C8D22E00F
:100F10001092E9001092590110925801F2122EC05D
:100F200010925701109256010E94CA041F8299E044
:100F30009983FA8291E09E8390EA98879AEF998745
:100F40002091580130915901275F3F4F3C832B83FB
:100F50008D831092E900109259011092580110935C
:100F600057010093560149E050E0BE016F5F7F4F8B
:100F700080E00E94A4040E94CA0479CF1093570114
:100F8000009356010E94E103DC0112960D911C9121
:100F90000115110509F451C1D801ED91FC910480AE
:100FA000F581E02DBE016B5E7F4FC801099500976A
:100FB00009F03EC1F80100851185EACFF3E0FF1288
:100FC0000EC08F89882309F440C0823061F440E864
:100FD00067E08FEC96E00E946D09811148CF81E2B5
:100FE0008093EB0047CF813029F440E86BE083EC3D
:100FF00096E0F1CF833099F70E94E103DC0112966D
:10100000ED90FC908E010F5F1F4F6801E114F10419
:1010100079F0D701ED91FC910680F781E02DB801C0
:10102000C7010995080F111DF701E084F184EECF87
:10103000D8011C92F60101900020E9F73197BF0119
:101040006C197D0940E0C601C6CF6DEA76E0FB0170
:10105000449150E080E80E94A40409CF973009F43D
:10106000BECF983021F481E08093F10000CF993019
:1010700009F0FDCE837009F0B2CFEDE1F1E081E03F
:1010800031E096E32191222371F08093E9003093BF
:10109000EB00DF0111972C912093EC009093ED0071
:1010A0008F5F873079F78EE78093EA001092EA002D
:1010B0008F8980936B01DBCE8B8D9C8D1092E90024
:1010C0001092590110925801909357018093560144
:1010D000898D811192C08E899D89913A49F481321E
:1010E00009F07DCF47E050E064E171E080E0B3CFEC
:1010F000913209F074CF833269F48F89988DB0E012
:10110000A0E08093100190931101A0931201B0937D
:101110001301ADCE803269F48091E80082FFFCCFEC
:1011200067E084E191E00E94FB048BEF8093E8008C
:101130009ECE823209F09BCE8F8980931B01EEEF09
:10114000FFE7859194918B3F9C4D51F1E0E0F8E0F1
:101150008091140190911501A0911601B091170191
:10116000803B9440A105B105F1F480911B0180FD05
:101170001AC0EE3F8AE0F80789F587E797E7918381
:1011800080838091600080935A0188E19BE00FB6D4
:10119000F894A895809360000FBE9093600067CE8E
:1011A000EEEFFAE0D5CF808191818737974709F03C
:1011B0005ECEA895809160008861809360008091E8
:1011C0005A0180936000EE3F2AE0F20789F0809197
:1011D000FE0A9091FF0A9183808349CE808191819C
:1011E0008737980751F29093FF0A8093FE0AC5CF84
:1011F0001092FF0A1092FE0A3ACE0E94E103DC012F
:1012000012960D911C910115110509F4E8CED80133
:10121000ED91FC910190F081E02DBE016B5E7F4F5E
:10122000C8010995811123CEF80100851185EBCF06
:10123000181619060CF41BCED2CEF1E0FF12BECE6A
:1012400061EB76E004CF0F920FB68F939F93EF93ED
:10125000FF9380914D018D5F8D3708F08D578093FE
:101260004D01EEE4F1E080818E4F808391819F4FAC
:10127000918382818F4F828383818F4F8383E2E5C5
:10128000F1E080818F5F808381818F4F81838281B4
:101290008F4F828383818F4F83838FB18F60669955
:1012A0001C9B88278F3681F480914C01981B9630C7
:1012B00068F0E0E0F8E087E78083818388E180934D
:1012C0006000F0936000FFCF90934C01FF91EF918D
:1012D0009F918F910FBE0F901895EF92FF920F93F1
:1012E0001F93CF93DF93F82E192FE62E042F81E062
:1012F000860F880F0E94760483E00E947604CF2D2B
:10130000D12FEC0EFD2EF11CCE15DF05B9F007FF35
:1013100013C0FE0184910E947604182F80E00E9481
:101320007604812321968111EFCFDF91CF911F9118
:101330000F91FF90EF9008958881EDCF81E0F5CF78
:10134000ECE6F5E01382128288EE93E0A0E0B0E0D4
:1013500084839583A683B78387E291E0918380831A
:101360008FEF9FEF95878487ECEBF5E01382128275
:1013700089E391E0918380830895789483E084BD2C
:1013800083E085BD81E080936E00E1E8F0E083E0DA
:101390008083E0E881E08083E1E983E08083E0E925
:1013A00081E08083E1EC87E08083E3EC81E080836F
:1013B000E0EC82E08083E2EC81E08083EAE787E092
:1013C00080838068808310926B0110925B01109281
:1013D0005D018091D70081608093D70080EA80937F
:1013E000D80089B5806189BD89B5826089BD09B49D
:1013F00000FEFDCF81E090E00E9408058091D800BA
:101400008F7C80618093D8008091E000807F809302
:10141000E0008091E1008E7E8093E1008DE080937A
:10142000E200559A209A81EC80937C0081EF85B987
:1014300087EE84B982E38BB982EF8AB9769A6E9887
:1014400080EF81BB10BA80E58CBD81E08DBD85E069
:101450000E94E4055F9A85E00E94E4055C98EEE551
:10146000F6E085918EBD00000DB407FEFDCFEB3692
:10147000C1F75C9A81E88093640081E08093650005
:101480000E947B0680E80E9470068823A9F05C9881
:1014900085EA8EBD00000DB407FEFDCF5C9A2E9844
:1014A0002F982D988091640080628093640081E081
:1014B00083BF889513BEFCCF84E00E94700688230A
:1014C000B9F12D9884E80E9470068823A1F02D9A26
:1014D00088EC0E94E4052F986FEF82E090E00E9474
:1014E0000D0C84EF91E00E9408052F9A84E80E9479
:1014F00070068111FBCF84E10E9470068823A1F061
:101500002D9A88EC0E94E4052E9860E082E090E03D
:101510000E940D0C84EF91E00E9408052E9A84E150
:101520000E9470068111FBCF88EC0E94E405C4CFB5
:101530002D9A82E090E00E94050C882309F442C0B5
:101540003E9A3F9A81E090E00E94050C182F14709B
:1015500081FF0BC011112E98C1EFDFEF80E40E94D4
:101560007006882391F12E9A2F9A82E30E94E40557
:101570000E94E7058111F9CF81E28093000186E1A5
:1015800080934B018CE180934A01BB24B39402E425
:1015900011E0A12C8CE6E82E81E0F82E91E0C92E16
:1015A00091E0D92EC0E0D0E0992493948091440139
:1015B000882309F4A3C0109244012097B9F30E9434
:1015C0000000F4CF3E983F98BDCF112329F0C430DE
:1015D000D10511F42E9A2F9881E00E9497030C2FC9
:1015E0000770A02EAE0123E0559547952A95E1F7A7
:1015F0009A013695322F22273795279524593E4F49
:1016000070E060E04E3F8FEF580761F190E080E0BE
:10161000DB01A455BA4F7901E0E8EE0EF11CFD01A3
:10162000E80FF91FE491F0E04F010A2C02C0880C8A
:10163000991C0A94E2F74F3F540739F06901C80E2C
:10164000D91EF601B488B828B48AAA2039F06701F7
:10165000C80ED91EF60104890929048B0196883524
:101660009105E9F64F5F5F4F20583F4F685A7F4F13
:10167000603B710539F60E947B068FE00E94E4050D
:101680002196C931D10509F069CF112311F02F9AA4
:101690002D9880E991E00E9408052D9A81E090E064
:1016A0000E94050C80FF61CF8AE090E00E94050C4B
:1016B0009FEF980F9E3F08F058CF22E330E0309321
:1016C00047012093460128E330E0309349012093FD
:1016D0004801CAE0D0E0682F8CEB95E00E94EF054E
:1016E0002196CE010E94050CC031D105A1F70E94C0
:1016F0007B0688EE93E00E94080537CF90914E015B
:1017000080914501F92FF81B8F2F20910001F217CE
:1017100040F48F5F821708F050CFB3BE889513BE98
:101720004CCF9092440190934501F80180819181C2
:1017300001968083918380E40E947006882339F0AB
:1017400080914B018D3218F48F5F80934B0180E2C2
:101750000E947006882339F080914B01882319F08C
:10176000815080934B0180E80E947006882309F421
:1017700038C080914A0181113AC080E10E94700610
:10178000882309F438C080914A01883308F439C0AD
:101790009A2DF70191119FEF8FEF91939193919370
:1017A00091938150D0F780914A0190E020914B01B4
:1017B00030E0309347012093460190934901809394
:1017C0004801F60101900020E9F7AF014250514075
:1017D00061E071E08CEB95E00E94B7050E947B060A
:1017E000ECCE84E00E9470068111C3CFC6CF815039
:1017F00080934A01C2CF88E00E9470068111C3CF56
:10180000C7CF8F5F80934A01C3CFF999FECF92BDB6
:1018100081BDF89A992780B50895262FF999FECFB2
:1018200092BD81BDF89A019700B4021639F01FBA33
:1018300020BD0FB6F894FA9AF99A0FBE0895EE0FEC
:0E184000FF1F0590F491E02D0994F894FFCF5E
:10184E0010507265737320427574746F6E7321003D
:10185E00FFFFFFFF00E100000000000000C18081DB
:10186E0000000000000000F5031C0516040B045CCC
:10187E00041A04380400000000EF05B7057F067E49
:02188E00060052
:00000001FF
